:100000000C9446000C945D000C945D000C945D0013
:100010000C945D000C945D000C945D000C945D00EC
:100020000C945D000C945D000C945D000C945D00DC
:100030000C945D000C945D000C945D000C945D00CC
:100040000C945D000C945D000C945D000C945D00BC
:100050000C945D000C945D000C945D000C945D00AC
:100060000C945D000C945D000C945D000C945D009C
:100070000C945D000C945D000C945D000C945D008C
:100080000C945D000C945D000C945D0011241FBE67
:10009000CFEFD0E1DEBFCDBF11E0A0E0B1E0EEEEEA
:1000A000F0E000E00BBF02C007900D92A030B10756
:1000B000D9F70E945F000C9475000C9400008FEF3C
:1000C0008ABB1BBA28EE33E048EB50E005C0CA01FA
:1000D0000197F1F72150304021153105C1F78BB35D
:0E00E0008F5F8BBB28EE33E0F2CFF894FFCF9A
:00000001FF
